{
  "_format": "hh-sol-artifact-1",
  "contractName": "QuizRewards",
  "sourceName": "contracts/QuizRewards.sol",
  "abi": [
    {
      "inputs": [],
      "stateMutability": "nonpayable",
      "type": "constructor"
    },
    {
      "anonymous": false,
      "inputs": [
        {
          "indexed": true,
          "internalType": "address",
          "name": "owner",
          "type": "address"
        },
        {
          "indexed": true,
          "internalType": "address",
          "name": "approved",
          "type": "address"
        },
        {
          "indexed": true,
          "internalType": "uint256",
          "name": "tokenId",
          "type": "uint256"
        }
      ],
      "name": "Approval",
      "type": "event"
    },
    {
      "anonymous": false,
      "inputs": [
        {
          "indexed": true,
          "internalType": "address",
          "name": "owner",
          "type": "address"
        },
        {
          "indexed": true,
          "internalType": "address",
          "name": "operator",
          "type": "address"
        },
        {
          "indexed": false,
          "internalType": "bool",
          "name": "approved",
          "type": "bool"
        }
      ],
      "name": "ApprovalForAll",
      "type": "event"
    },
    {
      "anonymous": false,
      "inputs": [
        {
          "indexed": true,
          "internalType": "address",
          "name": "previousOwner",
          "type": "address"
        },
        {
          "indexed": true,
          "internalType": "address",
          "name": "newOwner",
          "type": "address"
        }
      ],
      "name": "OwnershipTransferred",
      "type": "event"
    },
    {
      "anonymous": false,
      "inputs": [
        {
          "indexed": true,
          "internalType": "address",
          "name": "from",
          "type": "address"
        },
        {
          "indexed": true,
          "internalType": "address",
          "name": "to",
          "type": "address"
        },
        {
          "indexed": true,
          "internalType": "uint256",
          "name": "tokenId",
          "type": "uint256"
        }
      ],
      "name": "Transfer",
      "type": "event"
    },
    {
      "inputs": [
        {
          "internalType": "address",
          "name": "to",
          "type": "address"
        },
        {
          "internalType": "uint256",
          "name": "tokenId",
          "type": "uint256"
        }
      ],
      "name": "approve",
      "outputs": [],
      "stateMutability": "nonpayable",
      "type": "function"
    },
    {
      "inputs": [
        {
          "internalType": "address",
          "name": "owner",
          "type": "address"
        }
      ],
      "name": "balanceOf",
      "outputs": [
        {
          "internalType": "uint256",
          "name": "",
          "type": "uint256"
        }
      ],
      "stateMutability": "view",
      "type": "function"
    },
    {
      "inputs": [
        {
          "internalType": "string",
          "name": "collection",
          "type": "string"
        },
        {
          "internalType": "uint256",
          "name": "tokenId",
          "type": "uint256"
        }
      ],
      "name": "generateMetadata",
      "outputs": [
        {
          "internalType": "string",
          "name": "",
          "type": "string"
        }
      ],
      "stateMutability": "pure",
      "type": "function"
    },
    {
      "inputs": [
        {
          "internalType": "uint256",
          "name": "tokenId",
          "type": "uint256"
        }
      ],
      "name": "getApproved",
      "outputs": [
        {
          "internalType": "address",
          "name": "",
          "type": "address"
        }
      ],
      "stateMutability": "view",
      "type": "function"
    },
    {
      "inputs": [
        {
          "internalType": "address",
          "name": "owner",
          "type": "address"
        },
        {
          "internalType": "address",
          "name": "operator",
          "type": "address"
        }
      ],
      "name": "isApprovedForAll",
      "outputs": [
        {
          "internalType": "bool",
          "name": "",
          "type": "bool"
        }
      ],
      "stateMutability": "view",
      "type": "function"
    },
    {
      "inputs": [
        {
          "internalType": "string",
          "name": "collection",
          "type": "string"
        }
      ],
      "name": "mintReward",
      "outputs": [],
      "stateMutability": "nonpayable",
      "type": "function"
    },
    {
      "inputs": [],
      "name": "name",
      "outputs": [
        {
          "internalType": "string",
          "name": "",
          "type": "string"
        }
      ],
      "stateMutability": "view",
      "type": "function"
    },
    {
      "inputs": [],
      "name": "owner",
      "outputs": [
        {
          "internalType": "address",
          "name": "",
          "type": "address"
        }
      ],
      "stateMutability": "view",
      "type": "function"
    },
    {
      "inputs": [
        {
          "internalType": "uint256",
          "name": "tokenId",
          "type": "uint256"
        }
      ],
      "name": "ownerOf",
      "outputs": [
        {
          "internalType": "address",
          "name": "",
          "type": "address"
        }
      ],
      "stateMutability": "view",
      "type": "function"
    },
    {
      "inputs": [],
      "name": "renounceOwnership",
      "outputs": [],
      "stateMutability": "nonpayable",
      "type": "function"
    },
    {
      "inputs": [
        {
          "internalType": "address",
          "name": "from",
          "type": "address"
        },
        {
          "internalType": "address",
          "name": "to",
          "type": "address"
        },
        {
          "internalType": "uint256",
          "name": "tokenId",
          "type": "uint256"
        }
      ],
      "name": "safeTransferFrom",
      "outputs": [],
      "stateMutability": "nonpayable",
      "type": "function"
    },
    {
      "inputs": [
        {
          "internalType": "address",
          "name": "from",
          "type": "address"
        },
        {
          "internalType": "address",
          "name": "to",
          "type": "address"
        },
        {
          "internalType": "uint256",
          "name": "tokenId",
          "type": "uint256"
        },
        {
          "internalType": "bytes",
          "name": "data",
          "type": "bytes"
        }
      ],
      "name": "safeTransferFrom",
      "outputs": [],
      "stateMutability": "nonpayable",
      "type": "function"
    },
    {
      "inputs": [
        {
          "internalType": "address",
          "name": "operator",
          "type": "address"
        },
        {
          "internalType": "bool",
          "name": "approved",
          "type": "bool"
        }
      ],
      "name": "setApprovalForAll",
      "outputs": [],
      "stateMutability": "nonpayable",
      "type": "function"
    },
    {
      "inputs": [
        {
          "internalType": "bytes4",
          "name": "interfaceId",
          "type": "bytes4"
        }
      ],
      "name": "supportsInterface",
      "outputs": [
        {
          "internalType": "bool",
          "name": "",
          "type": "bool"
        }
      ],
      "stateMutability": "view",
      "type": "function"
    },
    {
      "inputs": [],
      "name": "symbol",
      "outputs": [
        {
          "internalType": "string",
          "name": "",
          "type": "string"
        }
      ],
      "stateMutability": "view",
      "type": "function"
    },
    {
      "inputs": [
        {
          "internalType": "uint256",
          "name": "index",
          "type": "uint256"
        }
      ],
      "name": "tokenByIndex",
      "outputs": [
        {
          "internalType": "uint256",
          "name": "",
          "type": "uint256"
        }
      ],
      "stateMutability": "view",
      "type": "function"
    },
    {
      "inputs": [
        {
          "internalType": "address",
          "name": "owner",
          "type": "address"
        },
        {
          "internalType": "uint256",
          "name": "index",
          "type": "uint256"
        }
      ],
      "name": "tokenOfOwnerByIndex",
      "outputs": [
        {
          "internalType": "uint256",
          "name": "",
          "type": "uint256"
        }
      ],
      "stateMutability": "view",
      "type": "function"
    },
    {
      "inputs": [
        {
          "internalType": "uint256",
          "name": "tokenId",
          "type": "uint256"
        }
      ],
      "name": "tokenURI",
      "outputs": [
        {
          "internalType": "string",
          "name": "",
          "type": "string"
        }
      ],
      "stateMutability": "view",
      "type": "function"
    },
    {
      "inputs": [
        {
          "internalType": "address",
          "name": "_owner",
          "type": "address"
        }
      ],
      "name": "tokensOfOwner",
      "outputs": [
        {
          "internalType": "uint256[]",
          "name": "",
          "type": "uint256[]"
        }
      ],
      "stateMutability": "view",
      "type": "function"
    },
    {
      "inputs": [],
      "name": "totalSupply",
      "outputs": [
        {
          "internalType": "uint256",
          "name": "",
          "type": "uint256"
        }
      ],
      "stateMutability": "view",
      "type": "function"
    },
    {
      "inputs": [
        {
          "internalType": "address",
          "name": "from",
          "type": "address"
        },
        {
          "internalType": "address",
          "name": "to",
          "type": "address"
        },
        {
          "internalType": "uint256",
          "name": "tokenId",
          "type": "uint256"
        }
      ],
      "name": "transferFrom",
      "outputs": [],
      "stateMutability": "nonpayable",
      "type": "function"
    },
    {
      "inputs": [
        {
          "internalType": "address",
          "name": "newOwner",
          "type": "address"
        }
      ],
      "name": "transferOwnership",
      "outputs": [],
      "stateMutability": "nonpayable",
      "type": "function"
    },
    {
      "inputs": [],
      "name": "withdraw",
      "outputs": [],
      "stateMutability": "payable",
      "type": "function"
    }
  ],
  "bytecode": "0x60806040523480156200001157600080fd5b506040518060400160405280600c81526020017f5175697a205265776172647300000000000000000000000000000000000000008152506040518060400160405280600281526020017f515200000000000000000000000000000000000000000000000000000000000081525081600090816200008f919062000412565b508060019081620000a1919062000412565b505050620000c4620000b8620000ca60201b60201c565b620000d260201b60201c565b620004f9565b600033905090565b6000600b60009054906101000a900473ffffffffffffffffffffffffffffffffffffffff16905081600b60006101000a81548173ffffffffffffffffffffffffffffffffffffffff021916908373ffffffffffffffffffffffffffffffffffffffff1602179055508173ffffffffffffffffffffffffffffffffffffffff168173ffffffffffffffffffffffffffffffffffffffff167f8be0079c531659141344cd1fd0a4f28419497f9722a3daafe3b4186f6b6457e060405160405180910390a35050565b600081519050919050565b7f4e487b7100000000000000000000000000000000000000000000000000000000600052604160045260246000fd5b7f4e487b7100000000000000000000000000000000000000000000000000000000600052602260045260246000fd5b600060028204905060018216806200021a57607f821691505b60208210810362000230576200022f620001d2565b5b50919050565b60008190508160005260206000209050919050565b60006020601f8301049050919050565b600082821b905092915050565b6000600883026200029a7fffffffffffffffffffffffffffffffffffffffffffffffffffffffffffffffff826200025b565b620002a686836200025b565b95508019841693508086168417925050509392505050565b6000819050919050565b6000819050919050565b6000620002f3620002ed620002e784620002be565b620002c8565b620002be565b9050919050565b6000819050919050565b6200030f83620002d2565b620003276200031e82620002fa565b84845462000268565b825550505050565b600090565b6200033e6200032f565b6200034b81848462000304565b505050565b5b8181101562000373576200036760008262000334565b60018101905062000351565b5050565b601f821115620003c2576200038c8162000236565b62000397846200024b565b81016020851015620003a7578190505b620003bf620003b6856200024b565b83018262000350565b50505b505050565b600082821c905092915050565b6000620003e760001984600802620003c7565b1980831691505092915050565b6000620004028383620003d4565b9150826002028217905092915050565b6200041d8262000198565b67ffffffffffffffff811115620004395762000438620001a3565b5b62000445825462000201565b6200045282828562000377565b600060209050601f8311600181146200048a576000841562000475578287015190505b620004818582620003f4565b865550620004f1565b601f1984166200049a8662000236565b60005b82811015620004c4578489015182556001820191506020850194506020810190506200049d565b86831015620004e45784890151620004e0601f891682620003d4565b8355505b6001600288020188555050505b505050505050565b61492180620005096000396000f3fe6080604052600436106101405760003560e01c806370a08231116100b6578063a22cb4651161006f578063a22cb46514610461578063b88d4fde1461048a578063c87b56dd146104b3578063e985e9c5146104f0578063f2fde38b1461052d578063f3902e451461055657610140565b806370a0823114610351578063715018a61461038e5780638462151c146103a55780638da5cb5b146103e257806395d89b411461040d5780639a9ff0841461043857610140565b806323b872dd1161010857806323b872dd1461023e5780632f745c59146102675780633ccfd60b146102a457806342842e0e146102ae5780634f6ccce7146102d75780636352211e1461031457610140565b806301ffc9a71461014557806306fdde0314610182578063081812fc146101ad578063095ea7b3146101ea57806318160ddd14610213575b600080fd5b34801561015157600080fd5b5061016c60048036038101906101679190612a01565b610593565b6040516101799190612a49565b60405180910390f35b34801561018e57600080fd5b506101976105a5565b6040516101a49190612af4565b60405180910390f35b3480156101b957600080fd5b506101d460048036038101906101cf9190612b4c565b610637565b6040516101e19190612bba565b60405180910390f35b3480156101f657600080fd5b50610211600480360381019061020c9190612c01565b61067d565b005b34801561021f57600080fd5b50610228610794565b6040516102359190612c50565b60405180910390f35b34801561024a57600080fd5b5061026560048036038101906102609190612c6b565b6107a1565b005b34801561027357600080fd5b5061028e60048036038101906102899190612c01565b610801565b60405161029b9190612c50565b60405180910390f35b6102ac6108a6565b005b3480156102ba57600080fd5b506102d560048036038101906102d09190612c6b565b6109a6565b005b3480156102e357600080fd5b506102fe60048036038101906102f99190612b4c565b6109c6565b60405161030b9190612c50565b60405180910390f35b34801561032057600080fd5b5061033b60048036038101906103369190612b4c565b610a37565b6040516103489190612bba565b60405180910390f35b34801561035d57600080fd5b5061037860048036038101906103739190612cbe565b610abd565b6040516103859190612c50565b60405180910390f35b34801561039a57600080fd5b506103a3610b74565b005b3480156103b157600080fd5b506103cc60048036038101906103c79190612cbe565b610b88565b6040516103d99190612da9565b60405180910390f35b3480156103ee57600080fd5b506103f7610c36565b6040516104049190612bba565b60405180910390f35b34801561041957600080fd5b50610422610c60565b60405161042f9190612af4565b60405180910390f35b34801561044457600080fd5b5061045f600480360381019061045a9190612f00565b610cf2565b005b34801561046d57600080fd5b5061048860048036038101906104839190612f75565b610d16565b005b34801561049657600080fd5b506104b160048036038101906104ac9190613056565b610d2c565b005b3480156104bf57600080fd5b506104da60048036038101906104d59190612b4c565b610d8e565b6040516104e79190612af4565b60405180910390f35b3480156104fc57600080fd5b50610517600480360381019061051291906130d9565b610da0565b6040516105249190612a49565b60405180910390f35b34801561053957600080fd5b50610554600480360381019061054f9190612cbe565b610e34565b005b34801561056257600080fd5b5061057d60048036038101906105789190613119565b610eb7565b60405161058a9190612af4565b60405180910390f35b600061059e82610f4d565b9050919050565b6060600080546105b4906131a4565b80601f01602080910402602001604051908101604052809291908181526020018280546105e0906131a4565b801561062d5780601f106106025761010080835404028352916020019161062d565b820191906000526020600020905b81548152906001019060200180831161061057829003601f168201915b5050505050905090565b600061064282610fc7565b6004600083815260200190815260200160002060009054906101000a900473ffffffffffffffffffffffffffffffffffffffff169050919050565b600061068882610a37565b90508073ffffffffffffffffffffffffffffffffffffffff168373ffffffffffffffffffffffffffffffffffffffff16036106f8576040517f08c379a00000000000000000000000000000000000000000000000000000000081526004016106ef90613247565b60405180910390fd5b8073ffffffffffffffffffffffffffffffffffffffff16610717611012565b73ffffffffffffffffffffffffffffffffffffffff161480610746575061074581610740611012565b610da0565b5b610785576040517f08c379a000000000000000000000000000000000000000000000000000000000815260040161077c906132d9565b60405180910390fd5b61078f838361101a565b505050565b6000600880549050905090565b6107b26107ac611012565b826110d3565b6107f1576040517f08c379a00000000000000000000000000000000000000000000000000000000081526004016107e89061336b565b60405180910390fd5b6107fc838383611168565b505050565b600061080c83610abd565b821061084d576040517f08c379a0000000000000000000000000000000000000000000000000000000008152600401610844906133fd565b60405180910390fd5b600660008473ffffffffffffffffffffffffffffffffffffffff1673ffffffffffffffffffffffffffffffffffffffff168152602001908152602001600020600083815260200190815260200160002054905092915050565b6108ae611461565b6000479050600081116108f6576040517f08c379a00000000000000000000000000000000000000000000000000000000081526004016108ed90613469565b60405180910390fd5b60003373ffffffffffffffffffffffffffffffffffffffff168260405161091c906134ba565b60006040518083038185875af1925050503d8060008114610959576040519150601f19603f3d011682016040523d82523d6000602084013e61095e565b606091505b50509050806109a2576040517f08c379a00000000000000000000000000000000000000000000000000000000081526004016109999061351b565b60405180910390fd5b5050565b6109c183838360405180602001604052806000815250610d2c565b505050565b60006109d0610794565b8210610a11576040517f08c379a0000000000000000000000000000000000000000000000000000000008152600401610a08906135ad565b60405180910390fd5b60088281548110610a2557610a246135cd565b5b90600052602060002001549050919050565b600080610a43836114df565b9050600073ffffffffffffffffffffffffffffffffffffffff168173ffffffffffffffffffffffffffffffffffffffff1603610ab4576040517f08c379a0000000000000000000000000000000000000000000000000000000008152600401610aab90613648565b60405180910390fd5b80915050919050565b60008073ffffffffffffffffffffffffffffffffffffffff168273ffffffffffffffffffffffffffffffffffffffff1603610b2d576040517f08c379a0000000000000000000000000000000000000000000000000000000008152600401610b24906136da565b60405180910390fd5b600360008373ffffffffffffffffffffffffffffffffffffffff1673ffffffffffffffffffffffffffffffffffffffff168152602001908152602001600020549050919050565b610b7c611461565b610b86600061151c565b565b60606000610b9583610abd565b905060008167ffffffffffffffff811115610bb357610bb2612dd5565b5b604051908082528060200260200182016040528015610be15781602001602082028036833780820191505090505b50905060005b82811015610c2b57610bf98582610801565b828281518110610c0c57610c0b6135cd565b5b6020026020010181815250508080610c2390613729565b915050610be7565b508092505050919050565b6000600b60009054906101000a900473ffffffffffffffffffffffffffffffffffffffff16905090565b606060018054610c6f906131a4565b80601f0160208091040260200160405190810160405280929190818152602001828054610c9b906131a4565b8015610ce85780601f10610cbd57610100808354040283529160200191610ce8565b820191906000526020600020905b815481529060010190602001808311610ccb57829003601f168201915b5050505050905090565b6000610d0782610d02600c6115e2565b610eb7565b9050610d12816115f0565b5050565b610d28610d21611012565b8383611620565b5050565b610d3d610d37611012565b836110d3565b610d7c576040517f08c379a0000000000000000000000000000000000000000000000000000000008152600401610d739061336b565b60405180910390fd5b610d888484848461178c565b50505050565b6060610d99826117e8565b9050919050565b6000600560008473ffffffffffffffffffffffffffffffffffffffff1673ffffffffffffffffffffffffffffffffffffffff16815260200190815260200160002060008373ffffffffffffffffffffffffffffffffffffffff1673ffffffffffffffffffffffffffffffffffffffff16815260200190815260200160002060009054906101000a900460ff16905092915050565b610e3c611461565b600073ffffffffffffffffffffffffffffffffffffffff168173ffffffffffffffffffffffffffffffffffffffff1603610eab576040517f08c379a0000000000000000000000000000000000000000000000000000000008152600401610ea2906137e3565b60405180910390fd5b610eb48161151c565b50565b6060600083604051602001610ecc9190613bf5565b60405160208183030381529060405290506000610f1b610eeb856118fa565b610ef4846119c8565b87604051602001610f0793929190613e2c565b6040516020818303038152906040526119c8565b9050600081604051602001610f309190613ed5565b604051602081830303815290604052905080935050505092915050565b60007f780e9d63000000000000000000000000000000000000000000000000000000007bffffffffffffffffffffffffffffffffffffffffffffffffffffffff1916827bffffffffffffffffffffffffffffffffffffffffffffffffffffffff19161480610fc05750610fbf82611b2b565b5b9050919050565b610fd081611c0d565b61100f576040517f08c379a000000000000000000000000000000000000000000000000000000000815260040161100690613648565b60405180910390fd5b50565b600033905090565b816004600083815260200190815260200160002060006101000a81548173ffffffffffffffffffffffffffffffffffffffff021916908373ffffffffffffffffffffffffffffffffffffffff160217905550808273ffffffffffffffffffffffffffffffffffffffff1661108d83610a37565b73ffffffffffffffffffffffffffffffffffffffff167f8c5be1e5ebec7d5bd14f71427d1e84f3dd0314c0f7b2291e5b200ac8c7c3b92560405160405180910390a45050565b6000806110df83610a37565b90508073ffffffffffffffffffffffffffffffffffffffff168473ffffffffffffffffffffffffffffffffffffffff16148061112157506111208185610da0565b5b8061115f57508373ffffffffffffffffffffffffffffffffffffffff1661114784610637565b73ffffffffffffffffffffffffffffffffffffffff16145b91505092915050565b8273ffffffffffffffffffffffffffffffffffffffff1661118882610a37565b73ffffffffffffffffffffffffffffffffffffffff16146111de576040517f08c379a00000000000000000000000000000000000000000000000000000000081526004016111d590613f69565b60405180910390fd5b600073ffffffffffffffffffffffffffffffffffffffff168273ffffffffffffffffffffffffffffffffffffffff160361124d576040517f08c379a000000000000000000000000000000000000000000000000000000000815260040161124490613ffb565b60405180910390fd5b61125a8383836001611c4e565b8273ffffffffffffffffffffffffffffffffffffffff1661127a82610a37565b73ffffffffffffffffffffffffffffffffffffffff16146112d0576040517f08c379a00000000000000000000000000000000000000000000000000000000081526004016112c790613f69565b60405180910390fd5b6004600082815260200190815260200160002060006101000a81549073ffffffffffffffffffffffffffffffffffffffff02191690556001600360008573ffffffffffffffffffffffffffffffffffffffff1673ffffffffffffffffffffffffffffffffffffffff168152602001908152602001600020600082825403925050819055506001600360008473ffffffffffffffffffffffffffffffffffffffff1673ffffffffffffffffffffffffffffffffffffffff16815260200190815260200160002060008282540192505081905550816002600083815260200190815260200160002060006101000a81548173ffffffffffffffffffffffffffffffffffffffff021916908373ffffffffffffffffffffffffffffffffffffffff160217905550808273ffffffffffffffffffffffffffffffffffffffff168473ffffffffffffffffffffffffffffffffffffffff167fddf252ad1be2c89b69c2b068fc378daa952ba7f163c4a11628f55a4df523b3ef60405160405180910390a461145c8383836001611d06565b505050565b611469611012565b73ffffffffffffffffffffffffffffffffffffffff16611487610c36565b73ffffffffffffffffffffffffffffffffffffffff16146114dd576040517f08c379a00000000000000000000000000000000000000000000000000000000081526004016114d490614067565b60405180910390fd5b565b60006002600083815260200190815260200160002060009054906101000a900473ffffffffffffffffffffffffffffffffffffffff169050919050565b6000600b60009054906101000a900473ffffffffffffffffffffffffffffffffffffffff16905081600b60006101000a81548173ffffffffffffffffffffffffffffffffffffffff021916908373ffffffffffffffffffffffffffffffffffffffff1602179055508173ffffffffffffffffffffffffffffffffffffffff168173ffffffffffffffffffffffffffffffffffffffff167f8be0079c531659141344cd1fd0a4f28419497f9722a3daafe3b4186f6b6457e060405160405180910390a35050565b600081600001549050919050565b60006115fc600c6115e2565b90506116083382611d0c565b6116128183611d2a565b61161c600c611d97565b5050565b8173ffffffffffffffffffffffffffffffffffffffff168373ffffffffffffffffffffffffffffffffffffffff160361168e576040517f08c379a0000000000000000000000000000000000000000000000000000000008152600401611685906140d3565b60405180910390fd5b80600560008573ffffffffffffffffffffffffffffffffffffffff1673ffffffffffffffffffffffffffffffffffffffff16815260200190815260200160002060008473ffffffffffffffffffffffffffffffffffffffff1673ffffffffffffffffffffffffffffffffffffffff16815260200190815260200160002060006101000a81548160ff0219169083151502179055508173ffffffffffffffffffffffffffffffffffffffff168373ffffffffffffffffffffffffffffffffffffffff167f17307eab39ab6107e8899845ad3d59bd9653f200f220920489ca2b5937696c318360405161177f9190612a49565b60405180910390a3505050565b611797848484611168565b6117a384848484611dad565b6117e2576040517f08c379a00000000000000000000000000000000000000000000000000000000081526004016117d990614165565b60405180910390fd5b50505050565b60606117f382610fc7565b6000600a60008481526020019081526020016000208054611813906131a4565b80601f016020809104026020016040519081016040528092919081815260200182805461183f906131a4565b801561188c5780601f106118615761010080835404028352916020019161188c565b820191906000526020600020905b81548152906001019060200180831161186f57829003601f168201915b50505050509050600061189d611f34565b905060008151036118b25781925050506118f5565b6000825111156118e75780826040516020016118cf929190614185565b604051602081830303815290604052925050506118f5565b6118f084611f4b565b925050505b919050565b60606000600161190984611fb3565b01905060008167ffffffffffffffff81111561192857611927612dd5565b5b6040519080825280601f01601f19166020018201604052801561195a5781602001600182028036833780820191505090505b509050600082602001820190505b6001156119bd578080600190039150507f3031323334353637383961626364656600000000000000000000000000000000600a86061a8153600a85816119b1576119b06141a9565b5b04945060008503611968575b819350505050919050565b606060008251036119ea57604051806020016040528060008152509050611b26565b60006040518060600160405280604081526020016148ac6040913990506000600360028551611a1991906141d8565b611a23919061420c565b6004611a2f919061423d565b67ffffffffffffffff811115611a4857611a47612dd5565b5b6040519080825280601f01601f191660200182016040528015611a7a5781602001600182028036833780820191505090505b509050600182016020820185865187015b80821015611ae6576003820191508151603f8160121c168501518453600184019350603f81600c1c168501518453600184019350603f8160061c168501518453600184019350603f8116850151845360018401935050611a8b565b5050600386510660018114611b025760028114611b1557611b1d565b603d6001830353603d6002830353611b1d565b603d60018303535b50505080925050505b919050565b60007f80ac58cd000000000000000000000000000000000000000000000000000000007bffffffffffffffffffffffffffffffffffffffffffffffffffffffff1916827bffffffffffffffffffffffffffffffffffffffffffffffffffffffff19161480611bf657507f5b5e139f000000000000000000000000000000000000000000000000000000007bffffffffffffffffffffffffffffffffffffffffffffffffffffffff1916827bffffffffffffffffffffffffffffffffffffffffffffffffffffffff1916145b80611c065750611c0582612106565b5b9050919050565b60008073ffffffffffffffffffffffffffffffffffffffff16611c2f836114df565b73ffffffffffffffffffffffffffffffffffffffff1614159050919050565b600073ffffffffffffffffffffffffffffffffffffffff168473ffffffffffffffffffffffffffffffffffffffff161480611cb55750600073ffffffffffffffffffffffffffffffffffffffff168373ffffffffffffffffffffffffffffffffffffffff16145b611cf4576040517f08c379a0000000000000000000000000000000000000000000000000000000008152600401611ceb906142cb565b60405180910390fd5b611d0084848484612170565b50505050565b50505050565b611d268282604051806020016040528060008152506122ce565b5050565b611d3382611c0d565b611d72576040517f08c379a0000000000000000000000000000000000000000000000000000000008152600401611d699061435d565b60405180910390fd5b80600a60008481526020019081526020016000209081611d929190614529565b505050565b6001816000016000828254019250508190555050565b6000611dce8473ffffffffffffffffffffffffffffffffffffffff16612329565b15611f27578373ffffffffffffffffffffffffffffffffffffffff1663150b7a02611df7611012565b8786866040518563ffffffff1660e01b8152600401611e199493929190614650565b6020604051808303816000875af1925050508015611e5557506040513d601f19601f82011682018060405250810190611e5291906146b1565b60015b611ed7573d8060008114611e85576040519150601f19603f3d011682016040523d82523d6000602084013e611e8a565b606091505b506000815103611ecf576040517f08c379a0000000000000000000000000000000000000000000000000000000008152600401611ec690614165565b60405180910390fd5b805181602001fd5b63150b7a0260e01b7bffffffffffffffffffffffffffffffffffffffffffffffffffffffff1916817bffffffffffffffffffffffffffffffffffffffffffffffffffffffff191614915050611f2c565b600190505b949350505050565b606060405180602001604052806000815250905090565b6060611f5682610fc7565b6000611f60611f34565b90506000815111611f805760405180602001604052806000815250611fab565b80611f8a846118fa565b604051602001611f9b929190614185565b6040516020818303038152906040525b915050919050565b600080600090507a184f03e93ff9f4daa797ed6e38ed64bf6a1f0100000000000000008310612011577a184f03e93ff9f4daa797ed6e38ed64bf6a1f0100000000000000008381612007576120066141a9565b5b0492506040810190505b6d04ee2d6d415b85acef8100000000831061204e576d04ee2d6d415b85acef81000000008381612044576120436141a9565b5b0492506020810190505b662386f26fc10000831061207d57662386f26fc100008381612073576120726141a9565b5b0492506010810190505b6305f5e10083106120a6576305f5e100838161209c5761209b6141a9565b5b0492506008810190505b61271083106120cb5761271083816120c1576120c06141a9565b5b0492506004810190505b606483106120ee57606483816120e4576120e36141a9565b5b0492506002810190505b600a83106120fd576001810190505b80915050919050565b60007f01ffc9a7000000000000000000000000000000000000000000000000000000007bffffffffffffffffffffffffffffffffffffffffffffffffffffffff1916827bffffffffffffffffffffffffffffffffffffffffffffffffffffffff1916149050919050565b61217c8484848461234c565b60018111156121c0576040517f08c379a00000000000000000000000000000000000000000000000000000000081526004016121b790614750565b60405180910390fd5b6000829050600073ffffffffffffffffffffffffffffffffffffffff168573ffffffffffffffffffffffffffffffffffffffff16036122075761220281612472565b612246565b8373ffffffffffffffffffffffffffffffffffffffff168573ffffffffffffffffffffffffffffffffffffffff16146122455761224485826124bb565b5b5b600073ffffffffffffffffffffffffffffffffffffffff168473ffffffffffffffffffffffffffffffffffffffff16036122885761228381612628565b6122c7565b8473ffffffffffffffffffffffffffffffffffffffff168473ffffffffffffffffffffffffffffffffffffffff16146122c6576122c584826126f9565b5b5b5050505050565b6122d88383612778565b6122e56000848484611dad565b612324576040517f08c379a000000000000000000000000000000000000000000000000000000000815260040161231b90614165565b60405180910390fd5b505050565b6000808273ffffffffffffffffffffffffffffffffffffffff163b119050919050565b600181111561246c57600073ffffffffffffffffffffffffffffffffffffffff168473ffffffffffffffffffffffffffffffffffffffff16146123e05780600360008673ffffffffffffffffffffffffffffffffffffffff1673ffffffffffffffffffffffffffffffffffffffff16815260200190815260200160002060008282546123d89190614770565b925050819055505b600073ffffffffffffffffffffffffffffffffffffffff168373ffffffffffffffffffffffffffffffffffffffff161461246b5780600360008573ffffffffffffffffffffffffffffffffffffffff1673ffffffffffffffffffffffffffffffffffffffff168152602001908152602001600020600082825461246391906141d8565b925050819055505b5b50505050565b6008805490506009600083815260200190815260200160002081905550600881908060018154018082558091505060019003906000526020600020016000909190919091505550565b600060016124c884610abd565b6124d29190614770565b90506000600760008481526020019081526020016000205490508181146125b7576000600660008673ffffffffffffffffffffffffffffffffffffffff1673ffffffffffffffffffffffffffffffffffffffff168152602001908152602001600020600084815260200190815260200160002054905080600660008773ffffffffffffffffffffffffffffffffffffffff1673ffffffffffffffffffffffffffffffffffffffff168152602001908152602001600020600084815260200190815260200160002081905550816007600083815260200190815260200160002081905550505b6007600084815260200190815260200160002060009055600660008573ffffffffffffffffffffffffffffffffffffffff1673ffffffffffffffffffffffffffffffffffffffff16815260200190815260200160002060008381526020019081526020016000206000905550505050565b6000600160088054905061263c9190614770565b905060006009600084815260200190815260200160002054905060006008838154811061266c5761266b6135cd565b5b90600052602060002001549050806008838154811061268e5761268d6135cd565b5b9060005260206000200181905550816009600083815260200190815260200160002081905550600960008581526020019081526020016000206000905560088054806126dd576126dc6147a4565b5b6001900381819060005260206000200160009055905550505050565b600061270483610abd565b905081600660008573ffffffffffffffffffffffffffffffffffffffff1673ffffffffffffffffffffffffffffffffffffffff168152602001908152602001600020600083815260200190815260200160002081905550806007600084815260200190815260200160002081905550505050565b600073ffffffffffffffffffffffffffffffffffffffff168273ffffffffffffffffffffffffffffffffffffffff16036127e7576040517f08c379a00000000000000000000000000000000000000000000000000000000081526004016127de9061481f565b60405180910390fd5b6127f081611c0d565b15612830576040517f08c379a00000000000000000000000000000000000000000000000000000000081526004016128279061488b565b60405180910390fd5b61283e600083836001611c4e565b61284781611c0d565b15612887576040517f08c379a000000000000000000000000000000000000000000000000000000000815260040161287e9061488b565b60405180910390fd5b6001600360008473ffffffffffffffffffffffffffffffffffffffff1673ffffffffffffffffffffffffffffffffffffffff16815260200190815260200160002060008282540192505081905550816002600083815260200190815260200160002060006101000a81548173ffffffffffffffffffffffffffffffffffffffff021916908373ffffffffffffffffffffffffffffffffffffffff160217905550808273ffffffffffffffffffffffffffffffffffffffff16600073ffffffffffffffffffffffffffffffffffffffff167fddf252ad1be2c89b69c2b068fc378daa952ba7f163c4a11628f55a4df523b3ef60405160405180910390a4612991600083836001611d06565b5050565b6000604051905090565b600080fd5b600080fd5b60007fffffffff0000000000000000000000000000000000000000000000000000000082169050919050565b6129de816129a9565b81146129e957600080fd5b50565b6000813590506129fb816129d5565b92915050565b600060208284031215612a1757612a1661299f565b5b6000612a25848285016129ec565b91505092915050565b60008115159050919050565b612a4381612a2e565b82525050565b6000602082019050612a5e6000830184612a3a565b92915050565b600081519050919050565b600082825260208201905092915050565b60005b83811015612a9e578082015181840152602081019050612a83565b60008484015250505050565b6000601f19601f8301169050919050565b6000612ac682612a64565b612ad08185612a6f565b9350612ae0818560208601612a80565b612ae981612aaa565b840191505092915050565b60006020820190508181036000830152612b0e8184612abb565b905092915050565b6000819050919050565b612b2981612b16565b8114612b3457600080fd5b50565b600081359050612b4681612b20565b92915050565b600060208284031215612b6257612b6161299f565b5b6000612b7084828501612b37565b91505092915050565b600073ffffffffffffffffffffffffffffffffffffffff82169050919050565b6000612ba482612b79565b9050919050565b612bb481612b99565b82525050565b6000602082019050612bcf6000830184612bab565b92915050565b612bde81612b99565b8114612be957600080fd5b50565b600081359050612bfb81612bd5565b92915050565b60008060408385031215612c1857612c1761299f565b5b6000612c2685828601612bec565b9250506020612c3785828601612b37565b9150509250929050565b612c4a81612b16565b82525050565b6000602082019050612c656000830184612c41565b92915050565b600080600060608486031215612c8457612c8361299f565b5b6000612c9286828701612bec565b9350506020612ca386828701612bec565b9250506040612cb486828701612b37565b9150509250925092565b600060208284031215612cd457612cd361299f565b5b6000612ce284828501612bec565b91505092915050565b600081519050919050565b600082825260208201905092915050565b6000819050602082019050919050565b612d2081612b16565b82525050565b6000612d328383612d17565b60208301905092915050565b6000602082019050919050565b6000612d5682612ceb565b612d608185612cf6565b9350612d6b83612d07565b8060005b83811015612d9c578151612d838882612d26565b9750612d8e83612d3e565b925050600181019050612d6f565b5085935050505092915050565b60006020820190508181036000830152612dc38184612d4b565b905092915050565b600080fd5b600080fd5b7f4e487b7100000000000000000000000000000000000000000000000000000000600052604160045260246000fd5b612e0d82612aaa565b810181811067ffffffffffffffff82111715612e2c57612e2b612dd5565b5b80604052505050565b6000612e3f612995565b9050612e4b8282612e04565b919050565b600067ffffffffffffffff821115612e6b57612e6a612dd5565b5b612e7482612aaa565b9050602081019050919050565b82818337600083830152505050565b6000612ea3612e9e84612e50565b612e35565b905082815260208101848484011115612ebf57612ebe612dd0565b5b612eca848285612e81565b509392505050565b600082601f830112612ee757612ee6612dcb565b5b8135612ef7848260208601612e90565b91505092915050565b600060208284031215612f1657612f1561299f565b5b600082013567ffffffffffffffff811115612f3457612f336129a4565b5b612f4084828501612ed2565b91505092915050565b612f5281612a2e565b8114612f5d57600080fd5b50565b600081359050612f6f81612f49565b92915050565b60008060408385031215612f8c57612f8b61299f565b5b6000612f9a85828601612bec565b9250506020612fab85828601612f60565b9150509250929050565b600067ffffffffffffffff821115612fd057612fcf612dd5565b5b612fd982612aaa565b9050602081019050919050565b6000612ff9612ff484612fb5565b612e35565b90508281526020810184848401111561301557613014612dd0565b5b613020848285612e81565b509392505050565b600082601f83011261303d5761303c612dcb565b5b813561304d848260208601612fe6565b91505092915050565b600080600080608085870312156130705761306f61299f565b5b600061307e87828801612bec565b945050602061308f87828801612bec565b93505060406130a087828801612b37565b925050606085013567ffffffffffffffff8111156130c1576130c06129a4565b5b6130cd87828801613028565b91505092959194509250565b600080604083850312156130f0576130ef61299f565b5b60006130fe85828601612bec565b925050602061310f85828601612bec565b9150509250929050565b600080604083850312156131305761312f61299f565b5b600083013567ffffffffffffffff81111561314e5761314d6129a4565b5b61315a85828601612ed2565b925050602061316b85828601612b37565b9150509250929050565b7f4e487b7100000000000000000000000000000000000000000000000000000000600052602260045260246000fd5b600060028204905060018216806131bc57607f821691505b6020821081036131cf576131ce613175565b5b50919050565b7f4552433732313a20617070726f76616c20746f2063757272656e74206f776e6560008201527f7200000000000000000000000000000000000000000000000000000000000000602082015250565b6000613231602183612a6f565b915061323c826131d5565b604082019050919050565b6000602082019050818103600083015261326081613224565b9050919050565b7f4552433732313a20617070726f76652063616c6c6572206973206e6f7420746f60008201527f6b656e206f776e6572206f7220617070726f76656420666f7220616c6c000000602082015250565b60006132c3603d83612a6f565b91506132ce82613267565b604082019050919050565b600060208201905081810360008301526132f2816132b6565b9050919050565b7f4552433732313a2063616c6c6572206973206e6f7420746f6b656e206f776e6560008201527f72206f7220617070726f76656400000000000000000000000000000000000000602082015250565b6000613355602d83612a6f565b9150613360826132f9565b604082019050919050565b6000602082019050818103600083015261338481613348565b9050919050565b7f455243373231456e756d657261626c653a206f776e657220696e646578206f7560008201527f74206f6620626f756e6473000000000000000000000000000000000000000000602082015250565b60006133e7602b83612a6f565b91506133f28261338b565b604082019050919050565b60006020820190508181036000830152613416816133da565b9050919050565b7f4e6f206574686572206c65667420746f20776974686472617700000000000000600082015250565b6000613453601983612a6f565b915061345e8261341d565b602082019050919050565b6000602082019050818103600083015261348281613446565b9050919050565b600081905092915050565b50565b60006134a4600083613489565b91506134af82613494565b600082019050919050565b60006134c582613497565b9150819050919050565b7f5472616e73666572206661696c65642e00000000000000000000000000000000600082015250565b6000613505601083612a6f565b9150613510826134cf565b602082019050919050565b60006020820190508181036000830152613534816134f8565b9050919050565b7f455243373231456e756d657261626c653a20676c6f62616c20696e646578206f60008201527f7574206f6620626f756e64730000000000000000000000000000000000000000602082015250565b6000613597602c83612a6f565b91506135a28261353b565b604082019050919050565b600060208201905081810360008301526135c68161358a565b9050919050565b7f4e487b7100000000000000000000000000000000000000000000000000000000600052603260045260246000fd5b7f4552433732313a20696e76616c696420746f6b656e2049440000000000000000600082015250565b6000613632601883612a6f565b915061363d826135fc565b602082019050919050565b6000602082019050818103600083015261366181613625565b9050919050565b7f4552433732313a2061646472657373207a65726f206973206e6f74206120766160008201527f6c6964206f776e65720000000000000000000000000000000000000000000000602082015250565b60006136c4602983612a6f565b91506136cf82613668565b604082019050919050565b600060208201905081810360008301526136f3816136b7565b9050919050565b7f4e487b7100000000000000000000000000000000000000000000000000000000600052601160045260246000fd5b600061373482612b16565b91507fffffffffffffffffffffffffffffffffffffffffffffffffffffffffffffffff8203613766576137656136fa565b5b600182019050919050565b7f4f776e61626c653a206e6577206f776e657220697320746865207a65726f206160008201527f6464726573730000000000000000000000000000000000000000000000000000602082015250565b60006137cd602683612a6f565b91506137d882613771565b604082019050919050565b600060208201905081810360008301526137fc816137c0565b9050919050565b600081905092915050565b7f3c73766720786d6c6e733d27687474703a2f2f7777772e77332e6f72672f323060008201527f30302f73766727207072657365727665417370656374526174696f3d27784d6960208201527f6e794d696e206d656574272076696577426f783d27302030203335302033353060408201527f273e000000000000000000000000000000000000000000000000000000000000606082015250565b60006138b6606283613803565b91506138c18261380e565b606282019050919050565b7f3c7374796c653e2e62617365207b2066696c6c3a2077686974653b20666f6e7460008201527f2d66616d696c793a2073657269663b20666f6e742d73697a653a20323570783b60208201527f207d3c2f7374796c653e00000000000000000000000000000000000000000000604082015250565b600061394e604a83613803565b9150613959826138cc565b604a82019050919050565b7f3c726563742077696474683d273130302527206865696768743d27313030252760008201527f2066696c6c3d27677265656e27202f3e00000000000000000000000000000000602082015250565b60006139c0603083613803565b91506139cb82613964565b603082019050919050565b7f3c7465787420783d273530252720793d273430252720636c6173733d2762617360008201527f652720646f6d696e616e742d626173656c696e653d276d6964646c652720746560208201527f78742d616e63686f723d276d6964646c65273e00000000000000000000000000604082015250565b6000613a58605383613803565b9150613a63826139d6565b605382019050919050565b7f3c747370616e20793d273430252720783d27353025273e436f6e67726174756c60008201527f6174696f6e732100000000000000000000000000000000000000000000000000602082015250565b6000613aca602783613803565b9150613ad582613a6e565b602782019050919050565b7f3c2f747370616e3e000000000000000000000000000000000000000000000000600082015250565b6000613b16600883613803565b9150613b2182613ae0565b600882019050919050565b7f3c747370616e20793d273530252720783d27353025273e000000000000000000600082015250565b6000613b62601783613803565b9150613b6d82613b2c565b601782019050919050565b6000613b8382612a64565b613b8d8185613803565b9350613b9d818560208601612a80565b80840191505092915050565b7f3c2f747370616e3e3c2f746578743e3c2f7376673e0000000000000000000000600082015250565b6000613bdf601583613803565b9150613bea82613ba9565b601582019050919050565b6000613c00826138a9565b9150613c0b82613941565b9150613c16826139b3565b9150613c2182613a4b565b9150613c2c82613abd565b9150613c3782613b09565b9150613c4282613b55565b9150613c4e8284613b78565b9150613c5982613bd2565b915081905092915050565b7f7b226e616d65223a20225175697a205265776172642023000000000000000000600082015250565b6000613c9a601783613803565b9150613ca582613c64565b601782019050919050565b7f222c20226465736372697074696f6e223a2022412072657761726420666f722060008201527f6775657373696e6720616e204e465420636f6c6c656374696f6e20636f72726560208201527f63746c79222c2022696d616765223a2022646174613a696d6167652f7376672b60408201527f786d6c3b6261736536342c000000000000000000000000000000000000000000606082015250565b6000613d58606b83613803565b9150613d6382613cb0565b606b82019050919050565b7f222c202261747472696275746573223a205b7b2274726169745f74797065223a60008201527f2022436f6c6c656374696f6e222c202276616c7565223a202200000000000000602082015250565b6000613dca603983613803565b9150613dd582613d6e565b603982019050919050565b7f227d5d7d00000000000000000000000000000000000000000000000000000000600082015250565b6000613e16600483613803565b9150613e2182613de0565b600482019050919050565b6000613e3782613c8d565b9150613e438286613b78565b9150613e4e82613d4b565b9150613e5a8285613b78565b9150613e6582613dbd565b9150613e718284613b78565b9150613e7c82613e09565b9150819050949350505050565b7f646174613a6170706c69636174696f6e2f6a736f6e3b6261736536342c000000600082015250565b6000613ebf601d83613803565b9150613eca82613e89565b601d82019050919050565b6000613ee082613eb2565b9150613eec8284613b78565b915081905092915050565b7f4552433732313a207472616e736665722066726f6d20696e636f72726563742060008201527f6f776e6572000000000000000000000000000000000000000000000000000000602082015250565b6000613f53602583612a6f565b9150613f5e82613ef7565b604082019050919050565b60006020820190508181036000830152613f8281613f46565b9050919050565b7f4552433732313a207472616e7366657220746f20746865207a65726f2061646460008201527f7265737300000000000000000000000000000000000000000000000000000000602082015250565b6000613fe5602483612a6f565b9150613ff082613f89565b604082019050919050565b6000602082019050818103600083015261401481613fd8565b9050919050565b7f4f776e61626c653a2063616c6c6572206973206e6f7420746865206f776e6572600082015250565b6000614051602083612a6f565b915061405c8261401b565b602082019050919050565b6000602082019050818103600083015261408081614044565b9050919050565b7f4552433732313a20617070726f766520746f2063616c6c657200000000000000600082015250565b60006140bd601983612a6f565b91506140c882614087565b602082019050919050565b600060208201905081810360008301526140ec816140b0565b9050919050565b7f4552433732313a207472616e7366657220746f206e6f6e20455243373231526560008201527f63656976657220696d706c656d656e7465720000000000000000000000000000602082015250565b600061414f603283612a6f565b915061415a826140f3565b604082019050919050565b6000602082019050818103600083015261417e81614142565b9050919050565b60006141918285613b78565b915061419d8284613b78565b91508190509392505050565b7f4e487b7100000000000000000000000000000000000000000000000000000000600052601260045260246000fd5b60006141e382612b16565b91506141ee83612b16565b9250828201905080821115614206576142056136fa565b5b92915050565b600061421782612b16565b915061422283612b16565b925082614232576142316141a9565b5b828204905092915050565b600061424882612b16565b915061425383612b16565b925082820261426181612b16565b91508282048414831517614278576142776136fa565b5b5092915050565b7f4e4654206973206e6f74207472616e736665727261626c650000000000000000600082015250565b60006142b5601883612a6f565b91506142c08261427f565b602082019050919050565b600060208201905081810360008301526142e4816142a8565b9050919050565b7f45524337323155524953746f726167653a2055524920736574206f66206e6f6e60008201527f6578697374656e7420746f6b656e000000000000000000000000000000000000602082015250565b6000614347602e83612a6f565b9150614352826142eb565b604082019050919050565b600060208201905081810360008301526143768161433a565b9050919050565b60008190508160005260206000209050919050565b60006020601f8301049050919050565b600082821b905092915050565b6000600883026143df7fffffffffffffffffffffffffffffffffffffffffffffffffffffffffffffffff826143a2565b6143e986836143a2565b95508019841693508086168417925050509392505050565b6000819050919050565b600061442661442161441c84612b16565b614401565b612b16565b9050919050565b6000819050919050565b6144408361440b565b61445461444c8261442d565b8484546143af565b825550505050565b600090565b61446961445c565b614474818484614437565b505050565b5b818110156144985761448d600082614461565b60018101905061447a565b5050565b601f8211156144dd576144ae8161437d565b6144b784614392565b810160208510156144c6578190505b6144da6144d285614392565b830182614479565b50505b505050565b600082821c905092915050565b6000614500600019846008026144e2565b1980831691505092915050565b600061451983836144ef565b9150826002028217905092915050565b61453282612a64565b67ffffffffffffffff81111561454b5761454a612dd5565b5b61455582546131a4565b61456082828561449c565b600060209050601f8311600181146145935760008415614581578287015190505b61458b858261450d565b8655506145f3565b601f1984166145a18661437d565b60005b828110156145c9578489015182556001820191506020850194506020810190506145a4565b868310156145e657848901516145e2601f8916826144ef565b8355505b6001600288020188555050505b505050505050565b600081519050919050565b600082825260208201905092915050565b6000614622826145fb565b61462c8185614606565b935061463c818560208601612a80565b61464581612aaa565b840191505092915050565b60006080820190506146656000830187612bab565b6146726020830186612bab565b61467f6040830185612c41565b81810360608301526146918184614617565b905095945050505050565b6000815190506146ab816129d5565b92915050565b6000602082840312156146c7576146c661299f565b5b60006146d58482850161469c565b91505092915050565b7f455243373231456e756d657261626c653a20636f6e736563757469766520747260008201527f616e7366657273206e6f7420737570706f727465640000000000000000000000602082015250565b600061473a603583612a6f565b9150614745826146de565b604082019050919050565b600060208201905081810360008301526147698161472d565b9050919050565b600061477b82612b16565b915061478683612b16565b925082820390508181111561479e5761479d6136fa565b5b92915050565b7f4e487b7100000000000000000000000000000000000000000000000000000000600052603160045260246000fd5b7f4552433732313a206d696e7420746f20746865207a65726f2061646472657373600082015250565b6000614809602083612a6f565b9150614814826147d3565b602082019050919050565b60006020820190508181036000830152614838816147fc565b9050919050565b7f4552433732313a20746f6b656e20616c7265616479206d696e74656400000000600082015250565b6000614875601c83612a6f565b91506148808261483f565b602082019050919050565b600060208201905081810360008301526148a481614868565b905091905056fe4142434445464748494a4b4c4d4e4f505152535455565758595a6162636465666768696a6b6c6d6e6f707172737475767778797a303132333435363738392b2fa264697066735822122008c6102a6ed938d01afeefe0d3c97046f5f9debd9af24f7312ffa846ad36c86f64736f6c63430008110033",
  "linkReferences": {},
  "deployedLinkReferences": {}
}